{
  "contractName": "CommunityProperties",
  "abi": [
    {
      "inputs": [],
      "stateMutability": "nonpayable",
      "type": "constructor"
    },
    {
      "anonymous": false,
      "inputs": [
        {
          "indexed": false,
          "internalType": "uint256",
          "name": "requestId",
          "type": "uint256"
        },
        {
          "indexed": false,
          "internalType": "address",
          "name": "requestor",
          "type": "address"
        }
      ],
      "name": "ChangeRequestSubmitted",
      "type": "event"
    },
    {
      "anonymous": false,
      "inputs": [
        {
          "indexed": false,
          "internalType": "bool",
          "name": "ratingObligationEnabled",
          "type": "bool"
        },
        {
          "indexed": false,
          "internalType": "uint256",
          "name": "ratingObligationTimePeriod",
          "type": "uint256"
        },
        {
          "indexed": false,
          "internalType": "uint256",
          "name": "requiredRatingPercentage",
          "type": "uint256"
        },
        {
          "indexed": false,
          "internalType": "uint256",
          "name": "requiredPurchases",
          "type": "uint256"
        },
        {
          "indexed": false,
          "internalType": "uint256",
          "name": "requiredQLTimePeriod",
          "type": "uint256"
        },
        {
          "indexed": false,
          "internalType": "uint256",
          "name": "requiredSales",
          "type": "uint256"
        }
      ],
      "name": "PropertiesUpdated",
      "type": "event"
    },
    {
      "anonymous": false,
      "inputs": [
        {
          "indexed": false,
          "internalType": "uint256",
          "name": "requestId",
          "type": "uint256"
        },
        {
          "indexed": false,
          "internalType": "address",
          "name": "voter",
          "type": "address"
        },
        {
          "indexed": false,
          "internalType": "bool",
          "name": "vote",
          "type": "bool"
        },
        {
          "indexed": false,
          "internalType": "uint256",
          "name": "approvalCount",
          "type": "uint256"
        },
        {
          "indexed": false,
          "internalType": "uint256",
          "name": "rejectionCount",
          "type": "uint256"
        }
      ],
      "name": "VoteCasted",
      "type": "event"
    },
    {
      "inputs": [],
      "name": "CommunityName",
      "outputs": [
        {
          "internalType": "string",
          "name": "",
          "type": "string"
        }
      ],
      "stateMutability": "view",
      "type": "function",
      "constant": true
    },
    {
      "inputs": [
        {
          "internalType": "uint256",
          "name": "",
          "type": "uint256"
        }
      ],
      "name": "changeRequests",
      "outputs": [
        {
          "internalType": "address",
          "name": "requestor",
          "type": "address"
        },
        {
          "internalType": "uint256",
          "name": "requestId",
          "type": "uint256"
        },
        {
          "internalType": "bool",
          "name": "status",
          "type": "bool"
        },
        {
          "internalType": "bool",
          "name": "newRatingObligationEnabled",
          "type": "bool"
        },
        {
          "internalType": "uint256",
          "name": "newRatingObligationTimePeriod",
          "type": "uint256"
        },
        {
          "internalType": "uint256",
          "name": "newRequiredRatingPercentage",
          "type": "uint256"
        },
        {
          "internalType": "uint256",
          "name": "newRequiredPurchases",
          "type": "uint256"
        },
        {
          "internalType": "uint256",
          "name": "newRequiredQLTimePeriod",
          "type": "uint256"
        },
        {
          "internalType": "uint256",
          "name": "newRequiredSales",
          "type": "uint256"
        },
        {
          "internalType": "uint256",
          "name": "approvalCount",
          "type": "uint256"
        },
        {
          "internalType": "uint256",
          "name": "rejectionCount",
          "type": "uint256"
        }
      ],
      "stateMutability": "view",
      "type": "function",
      "constant": true
    },
    {
      "inputs": [],
      "name": "owner",
      "outputs": [
        {
          "internalType": "address",
          "name": "",
          "type": "address"
        }
      ],
      "stateMutability": "view",
      "type": "function",
      "constant": true
    },
    {
      "inputs": [],
      "name": "ratingObligationEnabled",
      "outputs": [
        {
          "internalType": "bool",
          "name": "",
          "type": "bool"
        }
      ],
      "stateMutability": "view",
      "type": "function",
      "constant": true
    },
    {
      "inputs": [],
      "name": "ratingObligationTimePeriod",
      "outputs": [
        {
          "internalType": "uint256",
          "name": "",
          "type": "uint256"
        }
      ],
      "stateMutability": "view",
      "type": "function",
      "constant": true
    },
    {
      "inputs": [
        {
          "internalType": "address",
          "name": "",
          "type": "address"
        }
      ],
      "name": "registeredAddresses",
      "outputs": [
        {
          "internalType": "bool",
          "name": "",
          "type": "bool"
        }
      ],
      "stateMutability": "view",
      "type": "function",
      "constant": true
    },
    {
      "inputs": [
        {
          "internalType": "uint256",
          "name": "",
          "type": "uint256"
        }
      ],
      "name": "registeredAddressesList",
      "outputs": [
        {
          "internalType": "address",
          "name": "",
          "type": "address"
        }
      ],
      "stateMutability": "view",
      "type": "function",
      "constant": true
    },
    {
      "inputs": [],
      "name": "requestCount",
      "outputs": [
        {
          "internalType": "uint256",
          "name": "",
          "type": "uint256"
        }
      ],
      "stateMutability": "view",
      "type": "function",
      "constant": true
    },
    {
      "inputs": [],
      "name": "requiredPurchases",
      "outputs": [
        {
          "internalType": "uint256",
          "name": "",
          "type": "uint256"
        }
      ],
      "stateMutability": "view",
      "type": "function",
      "constant": true
    },
    {
      "inputs": [],
      "name": "requiredQLTimePeriod",
      "outputs": [
        {
          "internalType": "uint256",
          "name": "",
          "type": "uint256"
        }
      ],
      "stateMutability": "view",
      "type": "function",
      "constant": true
    },
    {
      "inputs": [],
      "name": "requiredRatingPercentage",
      "outputs": [
        {
          "internalType": "uint256",
          "name": "",
          "type": "uint256"
        }
      ],
      "stateMutability": "view",
      "type": "function",
      "constant": true
    },
    {
      "inputs": [],
      "name": "requiredSales",
      "outputs": [
        {
          "internalType": "uint256",
          "name": "",
          "type": "uint256"
        }
      ],
      "stateMutability": "view",
      "type": "function",
      "constant": true
    },
    {
      "inputs": [],
      "name": "totalAddressesCount",
      "outputs": [
        {
          "internalType": "uint256",
          "name": "",
          "type": "uint256"
        }
      ],
      "stateMutability": "view",
      "type": "function",
      "constant": true
    },
    {
      "inputs": [
        {
          "internalType": "address",
          "name": "addr",
          "type": "address"
        }
      ],
      "name": "registerAddress",
      "outputs": [],
      "stateMutability": "nonpayable",
      "type": "function"
    },
    {
      "inputs": [
        {
          "internalType": "address",
          "name": "addr",
          "type": "address"
        }
      ],
      "name": "unregisterAddress",
      "outputs": [],
      "stateMutability": "nonpayable",
      "type": "function"
    },
    {
      "inputs": [
        {
          "internalType": "uint256",
          "name": "index",
          "type": "uint256"
        }
      ],
      "name": "getRegisteredAddressAtIndex",
      "outputs": [
        {
          "internalType": "address",
          "name": "",
          "type": "address"
        }
      ],
      "stateMutability": "view",
      "type": "function",
      "constant": true
    },
    {
      "inputs": [],
      "name": "getTotalRegisteredAddresses",
      "outputs": [
        {
          "internalType": "uint256",
          "name": "",
          "type": "uint256"
        }
      ],
      "stateMutability": "view",
      "type": "function",
      "constant": true
    },
    {
      "inputs": [
        {
          "internalType": "bool",
          "name": "_ratingObligationEnabled",
          "type": "bool"
        },
        {
          "internalType": "uint256",
          "name": "_ratingObligationTimePeriod",
          "type": "uint256"
        },
        {
          "internalType": "uint256",
          "name": "_requiredRatingPercentage",
          "type": "uint256"
        },
        {
          "internalType": "uint256",
          "name": "_requiredPurchases",
          "type": "uint256"
        },
        {
          "internalType": "uint256",
          "name": "_requiredQLTimePeriod",
          "type": "uint256"
        },
        {
          "internalType": "uint256",
          "name": "_requiredSales",
          "type": "uint256"
        }
      ],
      "name": "updateProperties",
      "outputs": [],
      "stateMutability": "nonpayable",
      "type": "function"
    },
    {
      "inputs": [
        {
          "internalType": "bool",
          "name": "_newRatingObligationEnabled",
          "type": "bool"
        },
        {
          "internalType": "uint256",
          "name": "_newRatingObligationTimePeriod",
          "type": "uint256"
        },
        {
          "internalType": "uint256",
          "name": "_newRequiredRatingPercentage",
          "type": "uint256"
        },
        {
          "internalType": "uint256",
          "name": "_newRequiredPurchases",
          "type": "uint256"
        },
        {
          "internalType": "uint256",
          "name": "_newRequiredQLTimePeriod",
          "type": "uint256"
        },
        {
          "internalType": "uint256",
          "name": "_newRequiredSales",
          "type": "uint256"
        }
      ],
      "name": "submitChangeRequest",
      "outputs": [],
      "stateMutability": "nonpayable",
      "type": "function"
    },
    {
      "inputs": [
        {
          "internalType": "uint256",
          "name": "requestId",
          "type": "uint256"
        },
        {
          "internalType": "bool",
          "name": "vote",
          "type": "bool"
        }
      ],
      "name": "castVote",
      "outputs": [],
      "stateMutability": "nonpayable",
      "type": "function"
    },
    {
      "inputs": [],
      "name": "showActiveProposals",
      "outputs": [
        {
          "internalType": "uint256[]",
          "name": "requestIds",
          "type": "uint256[]"
        },
        {
          "internalType": "address[]",
          "name": "requestors",
          "type": "address[]"
        },
        {
          "internalType": "bool[]",
          "name": "statuses",
          "type": "bool[]"
        },
        {
          "internalType": "bool[]",
          "name": "newRatingObligationEnabled",
          "type": "bool[]"
        },
        {
          "internalType": "uint256[]",
          "name": "newRatingObligationTimePeriod",
          "type": "uint256[]"
        },
        {
          "internalType": "uint256[]",
          "name": "newRequiredRatingPercentage",
          "type": "uint256[]"
        },
        {
          "internalType": "uint256[]",
          "name": "newRequiredPurchases",
          "type": "uint256[]"
        },
        {
          "internalType": "uint256[]",
          "name": "newRequiredQLTimePeriod",
          "type": "uint256[]"
        },
        {
          "internalType": "uint256[]",
          "name": "newRequiredSales",
          "type": "uint256[]"
        },
        {
          "internalType": "uint256[]",
          "name": "approvalCounts",
          "type": "uint256[]"
        },
        {
          "internalType": "uint256[]",
          "name": "rejectionCounts",
          "type": "uint256[]"
        }
      ],
      "stateMutability": "view",
      "type": "function",
      "constant": true
    },
    {
      "inputs": [],
      "name": "showAllActiveProperties",
      "outputs": [
        {
          "internalType": "bool",
          "name": "",
          "type": "bool"
        },
        {
          "internalType": "uint256",
          "name": "",
          "type": "uint256"
        },
        {
          "internalType": "uint256",
          "name": "",
          "type": "uint256"
        },
        {
          "internalType": "uint256",
          "name": "",
          "type": "uint256"
        },
        {
          "internalType": "uint256",
          "name": "",
          "type": "uint256"
        },
        {
          "internalType": "uint256",
          "name": "",
          "type": "uint256"
        }
      ],
      "stateMutability": "view",
      "type": "function",
      "constant": true
    },
    {
      "inputs": [],
      "name": "getRatingObligationEnabled",
      "outputs": [
        {
          "internalType": "bool",
          "name": "",
          "type": "bool"
        }
      ],
      "stateMutability": "view",
      "type": "function",
      "constant": true
    },
    {
      "inputs": [],
      "name": "getRatingObligationTimePeriod",
      "outputs": [
        {
          "internalType": "uint256",
          "name": "",
          "type": "uint256"
        }
      ],
      "stateMutability": "view",
      "type": "function",
      "constant": true
    },
    {
      "inputs": [],
      "name": "getRequiredRatingPercentage",
      "outputs": [
        {
          "internalType": "uint256",
          "name": "",
          "type": "uint256"
        }
      ],
      "stateMutability": "view",
      "type": "function",
      "constant": true
    },
    {
      "inputs": [],
      "name": "getRequiredPurchases",
      "outputs": [
        {
          "internalType": "uint256",
          "name": "",
          "type": "uint256"
        }
      ],
      "stateMutability": "view",
      "type": "function",
      "constant": true
    },
    {
      "inputs": [],
      "name": "getRequiredQLTimePeriod",
      "outputs": [
        {
          "internalType": "uint256",
          "name": "",
          "type": "uint256"
        }
      ],
      "stateMutability": "view",
      "type": "function",
      "constant": true
    },
    {
      "inputs": [],
      "name": "getRequiredSales",
      "outputs": [
        {
          "internalType": "uint256",
          "name": "",
          "type": "uint256"
        }
      ],
      "stateMutability": "view",
      "type": "function",
      "constant": true
    },
    {
      "inputs": [],
      "name": "getCommunityName",
      "outputs": [
        {
          "internalType": "string",
          "name": "",
          "type": "string"
        }
      ],
      "stateMutability": "view",
      "type": "function",
      "constant": true
    }
  ],
  "bytecode": "0x60806040523480156200001157600080fd5b50336000806101000a81548173ffffffffffffffffffffffffffffffffffffffff021916908373ffffffffffffffffffffffffffffffffffffffff16021790555060008060146101000a81548160ff02191690831515021790555060646001819055506000600281905550600160038190555061016d600481905550600060058190555060006009819055506040518060400160405280600a81526020017f4175746f6d6f746976650000000000000000000000000000000000000000000081525060069081620000e391906200036a565b5062000451565b600081519050919050565b7f4e487b7100000000000000000000000000000000000000000000000000000000600052604160045260246000fd5b7f4e487b7100000000000000000000000000000000000000000000000000000000600052602260045260246000fd5b600060028204905060018216806200016c57607f821691505b60208210810362000182576200018162000124565b5b50919050565b60008190508160005260206000209050919050565b60006020601f8301049050919050565b60008160020a8302905092915050565b600060088302620001ef7fffffffffffffffffffffffffffffffffffffffffffffffffffffffffffffffff82620001ad565b620001fb8683620001ad565b95508019841693508086168417925050509392505050565b6000819050919050565b6000819050919050565b600062000248620002426200023c8462000213565b6200021d565b62000213565b9050919050565b6000819050919050565b620002648362000227565b6200027c62000273826200024f565b848454620001bd565b825550505050565b600090565b6200029362000284565b620002a081848462000259565b505050565b5b81811015620002c857620002bc60008262000289565b600181019050620002a6565b5050565b601f8211156200031757620002e18162000188565b620002ec846200019d565b81016020851015620002fc578190505b620003146200030b856200019d565b830182620002a5565b50505b505050565b60008160020a8304905092915050565b60006200033f600019846008026200031c565b1980831691505092915050565b60006200035a83836200032c565b9150826002028217905092915050565b6200037582620000ea565b67ffffffffffffffff811115620003915762000390620000f5565b5b6200039d825462000153565b620003aa828285620002cc565b600060209050601f831160018114620003e25760008415620003cd578287015190505b620003d985826200034c565b86555062000449565b601f198416620003f28662000188565b60005b828110156200041c57848901518255600182019150602085019450602081019050620003f5565b868310156200043c578489015162000438601f8916826200032c565b8355505b6001600288020188555050505b505050505050565b612a2f80620004616000396000f3fe608060405234801561001057600080fd5b50600436106101ea576000357c0100000000000000000000000000000000000000000000000000000000900480636aa99ffe11610121578063b354f04a116100bf578063e2a69dc41161008e578063e2a69dc41461052a578063f0b54c3c14610548578063f32a418014610566578063fea0a79b1461058e576101ea565b8063b354f04a146104b4578063c144cf4b146104d0578063c52c8686146104ee578063d15158171461050c576101ea565b80636e5f4e9c116100fb5780636e5f4e9c1461042c57806376b22eac1461044a5780638da5cb5b1461047a578063a8a5400814610498576101ea565b80636aa99ffe146103bb5780636cfb30af146103eb5780636d84409514610409576101ea565b80632d625d391161018e578063573796841161016857806357379684146103435780635badbe4c1461036157806363dc9eae1461037f578063647aa3061461039d576101ea565b80632d625d39146102e9578063327fcee5146103075780633d3a885814610325576101ea565b806315373e3d116101ca57806315373e3d146102755780631aec796b146102915780631f279a90146102ad5780632b2883a5146102cb576101ea565b8062daae0a146101ef578062f7c5be146102295780630d24910214610245575b600080fd5b61020960048036038101906102049190611cd5565b6105ac565b6040516102209b9a99989796959493929190611d6d565b60405180910390f35b610243600480360381019061023e9190611e44565b610640565b005b61025f600480360381019061025a9190611cd5565b610954565b60405161026c9190611e71565b60405180910390f35b61028f600480360381019061028a9190611eb8565b610993565b005b6102ab60048036038101906102a69190611ef8565b610d55565b005b6102b5610e69565b6040516102c29190611f85565b60405180910390f35b6102d3610e73565b6040516102e09190611f85565b60405180910390f35b6102f1610e79565b6040516102fe9190611fa0565b60405180910390f35b61030f610e8f565b60405161031c919061204b565b60405180910390f35b61032d610f21565b60405161033a9190611f85565b60405180910390f35b61034b610f27565b6040516103589190611f85565b60405180910390f35b610369610f31565b6040516103769190611f85565b60405180910390f35b610387610f37565b6040516103949190611f85565b60405180910390f35b6103a5610f3d565b6040516103b2919061204b565b60405180910390f35b6103d560048036038101906103d09190611cd5565b610fcb565b6040516103e29190611e71565b60405180910390f35b6103f361105a565b6040516104009190611fa0565b60405180910390f35b61041161106d565b6040516104239695949392919061206d565b60405180910390f35b6104346110a9565b6040516104419190611f85565b60405180910390f35b610464600480360381019061045f9190611e44565b6110b3565b6040516104719190611fa0565b60405180910390f35b6104826110d3565b60405161048f9190611e71565b60405180910390f35b6104b260048036038101906104ad9190611e44565b6110f7565b005b6104ce60048036038101906104c99190611ef8565b6112e8565b005b6104d86115fe565b6040516104e59190611f85565b60405180910390f35b6104f661160b565b6040516105039190611f85565b60405180910390f35b610514611615565b6040516105219190611f85565b60405180910390f35b61053261161b565b60405161053f9190611f85565b60405180910390f35b610550611625565b60405161055d9190611f85565b60405180910390f35b61056e61162b565b6040516105859b9a99989796959493929190612308565b60405180910390f35b610596611c58565b6040516105a39190611f85565b60405180910390f35b60076020528060005260406000206000915090508060000160009054906101000a900473ffffffffffffffffffffffffffffffffffffffff16908060010154908060020160009054906101000a900460ff16908060020160019054906101000a900460ff1690806003015490806004015490806005015490806006015490806007015490806008015490806009015490508b565b60008054906101000a900473ffffffffffffffffffffffffffffffffffffffff1673ffffffffffffffffffffffffffffffffffffffff163373ffffffffffffffffffffffffffffffffffffffff16146106ce576040517f08c379a00000000000000000000000000000000000000000000000000000000081526004016106c59061244c565b60405180910390fd5b600a60008273ffffffffffffffffffffffffffffffffffffffff1673ffffffffffffffffffffffffffffffffffffffff16815260200190815260200160002060009054906101000a900460ff1661075a576040517f08c379a0000000000000000000000000000000000000000000000000000000008152600401610751906124b8565b60405180910390fd5b6000600a60008373ffffffffffffffffffffffffffffffffffffffff1673ffffffffffffffffffffffffffffffffffffffff16815260200190815260200160002060006101000a81548160ff02191690831515021790555060005b600b80549050811015610938578173ffffffffffffffffffffffffffffffffffffffff16600b82815481106107ed576107ec6124d8565b5b9060005260206000200160009054906101000a900473ffffffffffffffffffffffffffffffffffffffff1673ffffffffffffffffffffffffffffffffffffffff160361092b57600b6001600b805490506108479190612536565b81548110610858576108576124d8565b5b9060005260206000200160009054906101000a900473ffffffffffffffffffffffffffffffffffffffff16600b8281548110610897576108966124d8565b5b9060005260206000200160006101000a81548173ffffffffffffffffffffffffffffffffffffffff021916908373ffffffffffffffffffffffffffffffffffffffff160217905550600b8054806108f1576108f061256a565b5b6001900381819060005260206000200160006101000a81549073ffffffffffffffffffffffffffffffffffffffff02191690559055610938565b80806001019150506107b5565b506009600081548092919061094c90612599565b919050555050565b600b818154811061096457600080fd5b906000526020600020016000915054906101000a900473ffffffffffffffffffffffffffffffffffffffff1681565b81600060076000838152602001908152602001600020905080600a0160003373ffffffffffffffffffffffffffffffffffffffff1673ffffffffffffffffffffffffffffffffffffffff16815260200190815260200160002060009054906101000a900460ff1615610a3a576040517f08c379a0000000000000000000000000000000000000000000000000000000008152600401610a319061260e565b60405180910390fd5b60006007600086815260200190815260200160002090508060020160009054906101000a900460ff16610aa2576040517f08c379a0000000000000000000000000000000000000000000000000000000008152600401610a999061267a565b60405180910390fd5b610aaa611c5e565b8481600001901515908115158152505085816040018181525050816008015481606001818152505081600901548160800181815250508160020160009054906101000a900460ff168160a0019015159081151581525050600182600a0160003373ffffffffffffffffffffffffffffffffffffffff1673ffffffffffffffffffffffffffffffffffffffff16815260200190815260200160002060006101000a81548160ff0219169083151502179055508415610b8d576001816020019015159081151581525050806060018051809190610b849061269a565b81525050610bb5565b6000816020019015159081151581525050806080018051809190610bb09061269a565b815250505b7f06047f5930e58b0df3f53199970d1a250dfd8415b2e5348d6b6a1a4992d91419816040015133836000015184606001518560800151604051610bfc9594939291906126e2565b60405180910390a1603260095460648360600151610c1a9190612735565b610c2491906127a6565b1115610d08578160020160019054906101000a900460ff16600060146101000a81548160ff0219169083151502179055508160030154600181905550816004015460028190555081600501546003819055508160060154600481905550816007015460058190555060008260020160006101000a81548160ff0219169083151502179055507f53fb7d491dcb8806dc4603924d47b3e7ab16990885a2515f6233827666674a8e600060149054906101000a900460ff16600154600254600354600454600554604051610cfb9695949392919061206d565b60405180910390a1610d4d565b603260095460648360800151610d1e9190612735565b610d2891906127a6565b1115610d4c5760008260020160006101000a81548160ff0219169083151502179055505b5b505050505050565b60008054906101000a900473ffffffffffffffffffffffffffffffffffffffff1673ffffffffffffffffffffffffffffffffffffffff163373ffffffffffffffffffffffffffffffffffffffff1614610de3576040517f08c379a0000000000000000000000000000000000000000000000000000000008152600401610dda9061244c565b60405180910390fd5b85600060146101000a81548160ff02191690831515021790555084600181905550836002819055508260038190555081600481905550806005819055507f53fb7d491dcb8806dc4603924d47b3e7ab16990885a2515f6233827666674a8e868686868686604051610e599695949392919061206d565b60405180910390a1505050505050565b6000600154905090565b60055481565b60008060149054906101000a900460ff16905090565b606060068054610e9e90612806565b80601f0160208091040260200160405190810160405280929190818152602001828054610eca90612806565b8015610f175780601f10610eec57610100808354040283529160200191610f17565b820191906000526020600020905b815481529060010190602001808311610efa57829003601f168201915b5050505050905090565b60045481565b6000600454905090565b60085481565b60095481565b60068054610f4a90612806565b80601f0160208091040260200160405190810160405280929190818152602001828054610f7690612806565b8015610fc35780601f10610f9857610100808354040283529160200191610fc3565b820191906000526020600020905b815481529060010190602001808311610fa657829003601f168201915b505050505081565b6000600b805490508210611014576040517f08c379a000000000000000000000000000000000000000000000000000000000815260040161100b90612883565b60405180910390fd5b600b8281548110611028576110276124d8565b5b9060005260206000200160009054906101000a900473ffffffffffffffffffffffffffffffffffffffff169050919050565b600060149054906101000a900460ff1681565b600080600080600080600060149054906101000a900460ff16600154600254600354600454600554955095509550955095509550909192939495565b6000600554905090565b600a6020528060005260406000206000915054906101000a900460ff1681565b60008054906101000a900473ffffffffffffffffffffffffffffffffffffffff1681565b60008054906101000a900473ffffffffffffffffffffffffffffffffffffffff1673ffffffffffffffffffffffffffffffffffffffff163373ffffffffffffffffffffffffffffffffffffffff1614611185576040517f08c379a000000000000000000000000000000000000000000000000000000000815260040161117c9061244c565b60405180910390fd5b600a60008273ffffffffffffffffffffffffffffffffffffffff1673ffffffffffffffffffffffffffffffffffffffff16815260200190815260200160002060009054906101000a900460ff1615611212576040517f08c379a0000000000000000000000000000000000000000000000000000000008152600401611209906128ef565b60405180910390fd5b6001600a60008373ffffffffffffffffffffffffffffffffffffffff1673ffffffffffffffffffffffffffffffffffffffff16815260200190815260200160002060006101000a81548160ff021916908315150217905550600b819080600181540180825580915050600190039060005260206000200160009091909190916101000a81548173ffffffffffffffffffffffffffffffffffffffff021916908373ffffffffffffffffffffffffffffffffffffffff160217905550600960008154809291906112e09061269a565b919050555050565b600a60003373ffffffffffffffffffffffffffffffffffffffff1673ffffffffffffffffffffffffffffffffffffffff16815260200190815260200160002060009054906101000a900460ff16611374576040517f08c379a000000000000000000000000000000000000000000000000000000000815260040161136b906124b8565b60405180910390fd5b600760006008548152602001908152602001600020600a0160003373ffffffffffffffffffffffffffffffffffffffff1673ffffffffffffffffffffffffffffffffffffffff16815260200190815260200160002060009054906101000a900460ff1615611417576040517f08c379a000000000000000000000000000000000000000000000000000000000815260040161140e90612981565b60405180910390fd5b6008600081548092919061142a9061269a565b919050555060006007600060085481526020019081526020016000209050338160000160006101000a81548173ffffffffffffffffffffffffffffffffffffffff021916908373ffffffffffffffffffffffffffffffffffffffff160217905550600854816001018190555060018160020160006101000a81548160ff021916908315150217905550868160020160016101000a81548160ff021916908315150217905550858160030181905550848160040181905550838160050181905550828160060181905550818160070181905550600181600a0160003373ffffffffffffffffffffffffffffffffffffffff1673ffffffffffffffffffffffffffffffffffffffff16815260200190815260200160002060006101000a81548160ff02191690831515021790555080600801600081548092919061156b9061269a565b91905055507f1a377c514d11ac98d55140a3a24896851e4151576d667180615eefc483db20f6600854336040516115a39291906129a1565b60405180910390a17f06047f5930e58b0df3f53199970d1a250dfd8415b2e5348d6b6a1a4992d91419600854336001846008015485600901546040516115ed9594939291906126e2565b60405180910390a150505050505050565b6000600b80549050905090565b6000600254905090565b60025481565b6000600354905090565b60035481565b6060806060806060806060806060806060600080600190505b6008548111611698576007600082815260200190815260200160002060020160009054906101000a900460ff16156116855781806116819061269a565b9250505b80806116909061269a565b915050611644565b508067ffffffffffffffff8111156116b3576116b26129ca565b5b6040519080825280602002602001820160405280156116e15781602001602082028036833780820191505090505b509b508067ffffffffffffffff8111156116fe576116fd6129ca565b5b60405190808252806020026020018201604052801561172c5781602001602082028036833780820191505090505b509a508067ffffffffffffffff811115611749576117486129ca565b5b6040519080825280602002602001820160405280156117775781602001602082028036833780820191505090505b5099508067ffffffffffffffff811115611794576117936129ca565b5b6040519080825280602002602001820160405280156117c25781602001602082028036833780820191505090505b5098508067ffffffffffffffff8111156117df576117de6129ca565b5b60405190808252806020026020018201604052801561180d5781602001602082028036833780820191505090505b5097508067ffffffffffffffff81111561182a576118296129ca565b5b6040519080825280602002602001820160405280156118585781602001602082028036833780820191505090505b5096508067ffffffffffffffff811115611875576118746129ca565b5b6040519080825280602002602001820160405280156118a35781602001602082028036833780820191505090505b5095508067ffffffffffffffff8111156118c0576118bf6129ca565b5b6040519080825280602002602001820160405280156118ee5781602001602082028036833780820191505090505b5094508067ffffffffffffffff81111561190b5761190a6129ca565b5b6040519080825280602002602001820160405280156119395781602001602082028036833780820191505090505b5093508067ffffffffffffffff811115611956576119556129ca565b5b6040519080825280602002602001820160405280156119845781602001602082028036833780820191505090505b5092508067ffffffffffffffff8111156119a1576119a06129ca565b5b6040519080825280602002602001820160405280156119cf5781602001602082028036833780820191505090505b509150600090506000600190505b6008548111611c49576007600082815260200190815260200160002060020160009054906101000a900460ff1615611c3657600060076000838152602001908152602001600020905080600101548e8481518110611a3e57611a3d6124d8565b5b6020026020010181815250508060000160009054906101000a900473ffffffffffffffffffffffffffffffffffffffff168d8481518110611a8257611a816124d8565b5b602002602001019073ffffffffffffffffffffffffffffffffffffffff16908173ffffffffffffffffffffffffffffffffffffffff16815250508060020160009054906101000a900460ff168c8481518110611ae157611ae06124d8565b5b6020026020010190151590811515815250508060020160019054906101000a900460ff168b8481518110611b1857611b176124d8565b5b60200260200101901515908115158152505080600301548a8481518110611b4257611b416124d8565b5b6020026020010181815250508060040154898481518110611b6657611b656124d8565b5b6020026020010181815250508060050154888481518110611b8a57611b896124d8565b5b6020026020010181815250508060060154878481518110611bae57611bad6124d8565b5b6020026020010181815250508060070154868481518110611bd257611bd16124d8565b5b6020026020010181815250508060080154858481518110611bf657611bf56124d8565b5b6020026020010181815250508060090154848481518110611c1a57611c196124d8565b5b6020026020010181815250508280611c319061269a565b935050505b8080611c419061269a565b9150506119dd565b5050909192939495969798999a565b60015481565b6040518060c001604052806000151581526020016000151581526020016000815260200160008152602001600081526020016000151581525090565b600080fd5b6000819050919050565b611cb281611c9f565b8114611cbd57600080fd5b50565b600081359050611ccf81611ca9565b92915050565b600060208284031215611ceb57611cea611c9a565b5b6000611cf984828501611cc0565b91505092915050565b600073ffffffffffffffffffffffffffffffffffffffff82169050919050565b6000611d2d82611d02565b9050919050565b611d3d81611d22565b82525050565b611d4c81611c9f565b82525050565b60008115159050919050565b611d6781611d52565b82525050565b600061016082019050611d83600083018e611d34565b611d90602083018d611d43565b611d9d604083018c611d5e565b611daa606083018b611d5e565b611db7608083018a611d43565b611dc460a0830189611d43565b611dd160c0830188611d43565b611dde60e0830187611d43565b611dec610100830186611d43565b611dfa610120830185611d43565b611e08610140830184611d43565b9c9b505050505050505050505050565b611e2181611d22565b8114611e2c57600080fd5b50565b600081359050611e3e81611e18565b92915050565b600060208284031215611e5a57611e59611c9a565b5b6000611e6884828501611e2f565b91505092915050565b6000602082019050611e866000830184611d34565b92915050565b611e9581611d52565b8114611ea057600080fd5b50565b600081359050611eb281611e8c565b92915050565b60008060408385031215611ecf57611ece611c9a565b5b6000611edd85828601611cc0565b9250506020611eee85828601611ea3565b9150509250929050565b60008060008060008060c08789031215611f1557611f14611c9a565b5b6000611f2389828a01611ea3565b9650506020611f3489828a01611cc0565b9550506040611f4589828a01611cc0565b9450506060611f5689828a01611cc0565b9350506080611f6789828a01611cc0565b92505060a0611f7889828a01611cc0565b9150509295509295509295565b6000602082019050611f9a6000830184611d43565b92915050565b6000602082019050611fb56000830184611d5e565b92915050565b600081519050919050565b600082825260208201905092915050565b60005b83811015611ff5578082015181840152602081019050611fda565b60008484015250505050565b6000601f19601f8301169050919050565b600061201d82611fbb565b6120278185611fc6565b9350612037818560208601611fd7565b61204081612001565b840191505092915050565b600060208201905081810360008301526120658184612012565b905092915050565b600060c0820190506120826000830189611d5e565b61208f6020830188611d43565b61209c6040830187611d43565b6120a96060830186611d43565b6120b66080830185611d43565b6120c360a0830184611d43565b979650505050505050565b600081519050919050565b600082825260208201905092915050565b6000819050602082019050919050565b61210381611c9f565b82525050565b600061211583836120fa565b60208301905092915050565b6000602082019050919050565b6000612139826120ce565b61214381856120d9565b935061214e836120ea565b8060005b8381101561217f5781516121668882612109565b975061217183612121565b925050600181019050612152565b5085935050505092915050565b600081519050919050565b600082825260208201905092915050565b6000819050602082019050919050565b6121c181611d22565b82525050565b60006121d383836121b8565b60208301905092915050565b6000602082019050919050565b60006121f78261218c565b6122018185612197565b935061220c836121a8565b8060005b8381101561223d57815161222488826121c7565b975061222f836121df565b925050600181019050612210565b5085935050505092915050565b600081519050919050565b600082825260208201905092915050565b6000819050602082019050919050565b61227f81611d52565b82525050565b60006122918383612276565b60208301905092915050565b6000602082019050919050565b60006122b58261224a565b6122bf8185612255565b93506122ca83612266565b8060005b838110156122fb5781516122e28882612285565b97506122ed8361229d565b9250506001810190506122ce565b5085935050505092915050565b6000610160820190508181036000830152612323818e61212e565b90508181036020830152612337818d6121ec565b9050818103604083015261234b818c6122aa565b9050818103606083015261235f818b6122aa565b90508181036080830152612373818a61212e565b905081810360a0830152612387818961212e565b905081810360c083015261239b818861212e565b905081810360e08301526123af818761212e565b90508181036101008301526123c4818661212e565b90508181036101208301526123d9818561212e565b90508181036101408301526123ee818461212e565b90509c9b505050505050505050505050565b7f4e6f7420746865206f776e657200000000000000000000000000000000000000600082015250565b6000612436600d83611fc6565b915061244182612400565b602082019050919050565b6000602082019050818103600083015261246581612429565b9050919050565b7f41646472657373206973206e6f74207265676973746572656400000000000000600082015250565b60006124a2601983611fc6565b91506124ad8261246c565b602082019050919050565b600060208201905081810360008301526124d181612495565b9050919050565b7f4e487b7100000000000000000000000000000000000000000000000000000000600052603260045260246000fd5b7f4e487b7100000000000000000000000000000000000000000000000000000000600052601160045260246000fd5b600061254182611c9f565b915061254c83611c9f565b925082820390508181111561256457612563612507565b5b92915050565b7f4e487b7100000000000000000000000000000000000000000000000000000000600052603160045260246000fd5b60006125a482611c9f565b9150600082036125b7576125b6612507565b5b600182039050919050565b7f596f75206861766520616c726561647920766f74656400000000000000000000600082015250565b60006125f8601683611fc6565b9150612603826125c2565b602082019050919050565b60006020820190508181036000830152612627816125eb565b9050919050565b7f5265717565737420616c726561647920636c6f73656400000000000000000000600082015250565b6000612664601683611fc6565b915061266f8261262e565b602082019050919050565b6000602082019050818103600083015261269381612657565b9050919050565b60006126a582611c9f565b91507fffffffffffffffffffffffffffffffffffffffffffffffffffffffffffffffff82036126d7576126d6612507565b5b600182019050919050565b600060a0820190506126f76000830188611d43565b6127046020830187611d34565b6127116040830186611d5e565b61271e6060830185611d43565b61272b6080830184611d43565b9695505050505050565b600061274082611c9f565b915061274b83611c9f565b925082820261275981611c9f565b915082820484148315176127705761276f612507565b5b5092915050565b7f4e487b7100000000000000000000000000000000000000000000000000000000600052601260045260246000fd5b60006127b182611c9f565b91506127bc83611c9f565b9250826127cc576127cb612777565b5b828204905092915050565b7f4e487b7100000000000000000000000000000000000000000000000000000000600052602260045260246000fd5b6000600282049050600182168061281e57607f821691505b602082108103612831576128306127d7565b5b50919050565b7f496e646578206f7574206f6620626f756e647300000000000000000000000000600082015250565b600061286d601383611fc6565b915061287882612837565b602082019050919050565b6000602082019050818103600083015261289c81612860565b9050919050565b7f4164647265737320697320616c72656164792072656769737465726564000000600082015250565b60006128d9601d83611fc6565b91506128e4826128a3565b602082019050919050565b60006020820190508181036000830152612908816128cc565b9050919050565b7f416464726573732068617320616c7265616479207375626d697474656420612060008201527f7265717565737400000000000000000000000000000000000000000000000000602082015250565b600061296b602783611fc6565b91506129768261290f565b604082019050919050565b6000602082019050818103600083015261299a8161295e565b9050919050565b60006040820190506129b66000830185611d43565b6129c36020830184611d34565b9392505050565b7f4e487b7100000000000000000000000000000000000000000000000000000000600052604160045260246000fdfea2646970667358221220c5dfb4fae11c524615d3e3bef7acb4a7f65937f94bdcb9f7c47edc1fb499b2d364736f6c63430008180033",
  "immutableReferences": {},
  "source": "// SPDX-License-Identifier: UNLICENSED\npragma solidity >=0.4.22 <0.9.0;\n\ncontract CommunityProperties {\n    address public owner;\n    bool public ratingObligationEnabled;\n    uint256 public ratingObligationTimePeriod;\n    uint256 public requiredRatingPercentage;\n    uint256 public requiredPurchases;\n    uint256 public requiredQLTimePeriod;\n    uint256 public requiredSales;\n    string public CommunityName;\n\n    struct ChangeRequestWithoutMapping {\n        address requestor;\n        uint256 requestId;\n        bool status;\n        bool newRatingObligationEnabled;\n        uint256 newRatingObligationTimePeriod;\n        uint256 newRequiredRatingPercentage;\n        uint256 newRequiredPurchases;\n        uint256 newRequiredQLTimePeriod;\n        uint256 newRequiredSales;\n        uint256 approvalCount;\n        uint256 rejectionCount;\n        mapping(address => bool) voted;\n    }\n\n    mapping(uint256 => ChangeRequestWithoutMapping) public changeRequests;\n    uint256 public requestCount;\n    uint256 public totalAddressesCount; // Track total addresses in the network\n    mapping(address => bool) public registeredAddresses; // Mapping to track registered addresses\n    address[] public registeredAddressesList; // Array to store a list of registered addresses\n\n    event PropertiesUpdated(bool ratingObligationEnabled, uint256 ratingObligationTimePeriod, uint256 requiredRatingPercentage, uint256 requiredPurchases, uint256 requiredQLTimePeriod, uint256 requiredSales);\n    event ChangeRequestSubmitted(uint256 requestId, address requestor);\n    event VoteCasted(uint256 requestId, address voter, bool vote, uint256 approvalCount, uint256 rejectionCount);\n\n    struct VoteData {\n        bool vote;\n        bool isApproval;\n        uint256 requestId;\n        uint256 approvalCount;\n        uint256 rejectionCount;\n        bool status;\n    }\n\n    constructor() {\n        owner = msg.sender;\n        ratingObligationEnabled = false;\n        ratingObligationTimePeriod = 100;\n        requiredRatingPercentage = 0;\n        requiredPurchases = 1;\n        requiredQLTimePeriod = 365;\n        requiredSales = 0;\n        totalAddressesCount = 0;\n        CommunityName = \"Automotive\";\n    }\n\n     modifier onlyOwner() {\n        require(msg.sender == owner, \"Not the owner\");\n        _;\n    }\n\n    modifier notVoted(uint256 requestId) {\n        ChangeRequestWithoutMapping storage currentRequest = changeRequests[requestId];\n        require(!currentRequest.voted[msg.sender], \"You have already voted\");\n        _;\n    }\n\n    modifier onlyRegistered() {\n        require(registeredAddresses[msg.sender], \"Address is not registered\");\n        _;\n    }\n\n    function registerAddress(address addr) external onlyOwner {\n        require(!registeredAddresses[addr], \"Address is already registered\");\n        registeredAddresses[addr] = true;\n        registeredAddressesList.push(addr);\n        totalAddressesCount++;\n    }\n\n    function unregisterAddress(address addr) external onlyOwner {\n        require(registeredAddresses[addr], \"Address is not registered\");\n        registeredAddresses[addr] = false;\n\n        // Remove the address from the registeredAddressesList\n        for (uint256 i = 0; i < registeredAddressesList.length; i++) {\n            if (registeredAddressesList[i] == addr) {\n                registeredAddressesList[i] = registeredAddressesList[registeredAddressesList.length - 1];\n                registeredAddressesList.pop();\n                break;\n            }\n        }\n\n        totalAddressesCount--;\n    }\n\n    // New function to get a registered address by index\n    function getRegisteredAddressAtIndex(uint256 index) external view returns (address) {\n        require(index < registeredAddressesList.length, \"Index out of bounds\");\n        return registeredAddressesList[index];\n    }\n\n    // New function to get the total number of registered addresses\n    function getTotalRegisteredAddresses() external view returns (uint256) {\n        return registeredAddressesList.length;\n    }\n\n    function updateProperties(bool _ratingObligationEnabled, uint256 _ratingObligationTimePeriod, uint256 _requiredRatingPercentage, uint256 _requiredPurchases, uint256 _requiredQLTimePeriod, uint256 _requiredSales) external onlyOwner {\n        ratingObligationEnabled = _ratingObligationEnabled;\n        ratingObligationTimePeriod = _ratingObligationTimePeriod;\n        requiredRatingPercentage = _requiredRatingPercentage;\n        requiredPurchases = _requiredPurchases;\n        requiredQLTimePeriod = _requiredQLTimePeriod;\n        requiredSales = _requiredSales;\n\n        emit PropertiesUpdated(_ratingObligationEnabled, _ratingObligationTimePeriod, _requiredRatingPercentage, _requiredPurchases, _requiredQLTimePeriod, _requiredSales);\n    }\n\n    function submitChangeRequest(bool _newRatingObligationEnabled, uint256 _newRatingObligationTimePeriod, uint256 _newRequiredRatingPercentage, uint256 _newRequiredPurchases, uint256 _newRequiredQLTimePeriod, uint256 _newRequiredSales) external onlyRegistered {\n        require(!changeRequests[requestCount].voted[msg.sender], \"Address has already submitted a request\");\n\n        requestCount++;\n        ChangeRequestWithoutMapping storage newRequest = changeRequests[requestCount];\n        newRequest.requestor = msg.sender;\n        newRequest.requestId = requestCount;\n        newRequest.status = true;\n        newRequest.newRatingObligationEnabled = _newRatingObligationEnabled;\n        newRequest.newRatingObligationTimePeriod = _newRatingObligationTimePeriod;\n        newRequest.newRequiredRatingPercentage = _newRequiredRatingPercentage;\n        newRequest.newRequiredPurchases = _newRequiredPurchases;\n        newRequest.newRequiredQLTimePeriod = _newRequiredQLTimePeriod;\n        newRequest.newRequiredSales = _newRequiredSales;\n\n        // Add the requester to the voted list with a positive vote\n        newRequest.voted[msg.sender] = true;\n        newRequest.approvalCount++;\n\n        emit ChangeRequestSubmitted(requestCount, msg.sender);\n        emit VoteCasted(requestCount, msg.sender, true, newRequest.approvalCount, newRequest.rejectionCount);\n    }\n\n    function castVote(uint256 requestId, bool vote) external notVoted(requestId) {\n        ChangeRequestWithoutMapping storage currentRequest = changeRequests[requestId];\n        require(currentRequest.status, \"Request already closed\");\n\n        VoteData memory voteData;\n        voteData.vote = vote;\n        voteData.requestId = requestId;\n        voteData.approvalCount = currentRequest.approvalCount;\n        voteData.rejectionCount = currentRequest.rejectionCount;\n        voteData.status = currentRequest.status;\n\n        // Add the voter to the voted list\n        currentRequest.voted[msg.sender] = true;\n\n        // Determine if it's an approval or rejection\n        if (vote) {\n            voteData.isApproval = true;\n            voteData.approvalCount++;\n        } else {\n            voteData.isApproval = false;\n            voteData.rejectionCount++;\n        }\n\n        emit VoteCasted(\n            voteData.requestId,\n            msg.sender,\n            voteData.vote,\n            voteData.approvalCount,\n            voteData.rejectionCount\n        );\n\n        // Check if the majority has voted\n        if ((voteData.approvalCount * 100) / totalAddressesCount > 50) {\n            // Apply the changes and close the request\n            ratingObligationEnabled = currentRequest.newRatingObligationEnabled;\n            ratingObligationTimePeriod = currentRequest.newRatingObligationTimePeriod;\n            requiredRatingPercentage = currentRequest.newRequiredRatingPercentage;\n            requiredPurchases = currentRequest.newRequiredPurchases;\n            requiredQLTimePeriod = currentRequest.newRequiredQLTimePeriod;\n            requiredSales = currentRequest.newRequiredSales;\n            currentRequest.status = false;\n\n            emit PropertiesUpdated(\n                ratingObligationEnabled,\n                ratingObligationTimePeriod,\n                requiredRatingPercentage,\n                requiredPurchases,\n                requiredQLTimePeriod,\n                requiredSales\n            );\n        } else if ((voteData.rejectionCount * 100) / totalAddressesCount > 50) {\n            // Reject the changes and close the request\n            currentRequest.status = false;\n        }\n    }\n\n    function showActiveProposals() external view returns (\n        uint256[] memory requestIds,\n        address[] memory requestors,\n        bool[] memory statuses,\n        bool[] memory newRatingObligationEnabled,\n        uint256[] memory newRatingObligationTimePeriod,\n        uint256[] memory newRequiredRatingPercentage,\n        uint256[] memory newRequiredPurchases,\n        uint256[] memory newRequiredQLTimePeriod,\n        uint256[] memory newRequiredSales,\n        uint256[] memory approvalCounts,\n        uint256[] memory rejectionCounts\n    ) {\n        uint256 count;\n        for (uint256 i = 1; i <= requestCount; i++) {\n            if (changeRequests[i].status) {\n                count++;\n            }\n        }\n\n        requestIds = new uint256[](count);\n        requestors = new address[](count);\n        statuses = new bool[](count);\n        newRatingObligationEnabled = new bool[](count);\n        newRatingObligationTimePeriod = new uint256[](count);\n        newRequiredRatingPercentage = new uint256[](count);\n        newRequiredPurchases = new uint256[](count);\n        newRequiredQLTimePeriod = new uint256[](count);\n        newRequiredSales = new uint256[](count);\n        approvalCounts = new uint256[](count);\n        rejectionCounts = new uint256[](count);\n\n        count = 0;\n        for (uint256 i = 1; i <= requestCount; i++) {\n            if (changeRequests[i].status) {\n                ChangeRequestWithoutMapping storage currentRequest = changeRequests[i];\n                requestIds[count] = currentRequest.requestId;\n                requestors[count] = currentRequest.requestor;\n                statuses[count] = currentRequest.status;\n                newRatingObligationEnabled[count] = currentRequest.newRatingObligationEnabled;\n                newRatingObligationTimePeriod[count] = currentRequest.newRatingObligationTimePeriod;\n                newRequiredRatingPercentage[count] = currentRequest.newRequiredRatingPercentage;\n                newRequiredPurchases[count] = currentRequest.newRequiredPurchases;\n                newRequiredQLTimePeriod[count] = currentRequest.newRequiredQLTimePeriod;\n                newRequiredSales[count] = currentRequest.newRequiredSales;\n                approvalCounts[count] = currentRequest.approvalCount;\n                rejectionCounts[count] = currentRequest.rejectionCount;\n\n                count++;\n            }\n        }\n\n        return (\n            requestIds,\n            requestors,\n            statuses,\n            newRatingObligationEnabled,\n            newRatingObligationTimePeriod,\n            newRequiredRatingPercentage,\n            newRequiredPurchases,\n            newRequiredQLTimePeriod,\n            newRequiredSales,\n            approvalCounts,\n            rejectionCounts\n        );\n    }\n\n    function showAllActiveProperties() external view returns (bool, uint256, uint256, uint256, uint256, uint256) {\n        return (ratingObligationEnabled, ratingObligationTimePeriod, requiredRatingPercentage, requiredPurchases, requiredQLTimePeriod, requiredSales);\n    }\n\n    function getRatingObligationEnabled() external view returns (bool) {\n        return ratingObligationEnabled;\n    }\n\n    function getRatingObligationTimePeriod() external view returns (uint256) {\n        return ratingObligationTimePeriod;\n    }\n\n    function getRequiredRatingPercentage() external view returns (uint256) {\n        return requiredRatingPercentage;\n    }\n\n    // Additional getter functions for the new variables\n    function getRequiredPurchases() external view returns (uint256) {\n        return requiredPurchases;\n    }\n\n    function getRequiredQLTimePeriod() external view returns (uint256) {\n        return requiredQLTimePeriod;\n    }\n\n    function getRequiredSales() external view returns (uint256) {\n        return requiredSales;\n    }\n    function getCommunityName() external view returns (string memory) {\n        return CommunityName;\n    }\n}\n",
  "sourcePath": "/root/besu-23.10.2/bin/IBFT-Network/contracts/CommunityProperties.sol",
  "compiler": {
    "name": "solc",
    "version": "0.8.24+commit.e11b9ed9.Emscripten.clang"
  },
  "schemaVersion": "3.4.16",
  "updatedAt": "2024-02-18T19:03:04.054Z",
  "networkType": "ethereum",
  "devdoc": {
    "kind": "dev",
    "methods": {},
    "version": 1
  },
  "userdoc": {
    "kind": "user",
    "methods": {},
    "version": 1
  }
}