{
  "contractName": "QualityLabel",
  "abi": [
    {
      "inputs": [
        {
          "internalType": "address",
          "name": "_communityPropertiesAddress",
          "type": "address"
        },
        {
          "internalType": "address",
          "name": "_marketplaceAddress",
          "type": "address"
        }
      ],
      "stateMutability": "nonpayable",
      "type": "constructor"
    },
    {
      "inputs": [
        {
          "internalType": "address",
          "name": "spender",
          "type": "address"
        },
        {
          "internalType": "uint256",
          "name": "allowance",
          "type": "uint256"
        },
        {
          "internalType": "uint256",
          "name": "needed",
          "type": "uint256"
        }
      ],
      "name": "ERC20InsufficientAllowance",
      "type": "error"
    },
    {
      "inputs": [
        {
          "internalType": "address",
          "name": "sender",
          "type": "address"
        },
        {
          "internalType": "uint256",
          "name": "balance",
          "type": "uint256"
        },
        {
          "internalType": "uint256",
          "name": "needed",
          "type": "uint256"
        }
      ],
      "name": "ERC20InsufficientBalance",
      "type": "error"
    },
    {
      "inputs": [
        {
          "internalType": "address",
          "name": "approver",
          "type": "address"
        }
      ],
      "name": "ERC20InvalidApprover",
      "type": "error"
    },
    {
      "inputs": [
        {
          "internalType": "address",
          "name": "receiver",
          "type": "address"
        }
      ],
      "name": "ERC20InvalidReceiver",
      "type": "error"
    },
    {
      "inputs": [
        {
          "internalType": "address",
          "name": "sender",
          "type": "address"
        }
      ],
      "name": "ERC20InvalidSender",
      "type": "error"
    },
    {
      "inputs": [
        {
          "internalType": "address",
          "name": "spender",
          "type": "address"
        }
      ],
      "name": "ERC20InvalidSpender",
      "type": "error"
    },
    {
      "anonymous": false,
      "inputs": [
        {
          "indexed": true,
          "internalType": "address",
          "name": "owner",
          "type": "address"
        },
        {
          "indexed": true,
          "internalType": "address",
          "name": "spender",
          "type": "address"
        },
        {
          "indexed": false,
          "internalType": "uint256",
          "name": "value",
          "type": "uint256"
        }
      ],
      "name": "Approval",
      "type": "event"
    },
    {
      "anonymous": false,
      "inputs": [
        {
          "indexed": false,
          "internalType": "uint256",
          "name": "timestamp",
          "type": "uint256"
        }
      ],
      "name": "QualityCheckInitiated",
      "type": "event"
    },
    {
      "anonymous": false,
      "inputs": [
        {
          "indexed": true,
          "internalType": "address",
          "name": "participant",
          "type": "address"
        },
        {
          "indexed": false,
          "internalType": "bool",
          "name": "result",
          "type": "bool"
        },
        {
          "indexed": false,
          "internalType": "uint256",
          "name": "timestamp",
          "type": "uint256"
        }
      ],
      "name": "QualityCheckPerformed",
      "type": "event"
    },
    {
      "anonymous": false,
      "inputs": [
        {
          "indexed": true,
          "internalType": "address",
          "name": "from",
          "type": "address"
        },
        {
          "indexed": true,
          "internalType": "address",
          "name": "to",
          "type": "address"
        },
        {
          "indexed": false,
          "internalType": "uint256",
          "name": "value",
          "type": "uint256"
        }
      ],
      "name": "Transfer",
      "type": "event"
    },
    {
      "inputs": [
        {
          "internalType": "address",
          "name": "owner",
          "type": "address"
        },
        {
          "internalType": "address",
          "name": "spender",
          "type": "address"
        }
      ],
      "name": "allowance",
      "outputs": [
        {
          "internalType": "uint256",
          "name": "",
          "type": "uint256"
        }
      ],
      "stateMutability": "view",
      "type": "function",
      "constant": true
    },
    {
      "inputs": [
        {
          "internalType": "address",
          "name": "spender",
          "type": "address"
        },
        {
          "internalType": "uint256",
          "name": "value",
          "type": "uint256"
        }
      ],
      "name": "approve",
      "outputs": [
        {
          "internalType": "bool",
          "name": "",
          "type": "bool"
        }
      ],
      "stateMutability": "nonpayable",
      "type": "function"
    },
    {
      "inputs": [
        {
          "internalType": "address",
          "name": "account",
          "type": "address"
        }
      ],
      "name": "balanceOf",
      "outputs": [
        {
          "internalType": "uint256",
          "name": "",
          "type": "uint256"
        }
      ],
      "stateMutability": "view",
      "type": "function",
      "constant": true
    },
    {
      "inputs": [],
      "name": "decimals",
      "outputs": [
        {
          "internalType": "uint8",
          "name": "",
          "type": "uint8"
        }
      ],
      "stateMutability": "view",
      "type": "function",
      "constant": true
    },
    {
      "inputs": [
        {
          "internalType": "address",
          "name": "",
          "type": "address"
        }
      ],
      "name": "lastSuccessfulCheckDate",
      "outputs": [
        {
          "internalType": "uint256",
          "name": "",
          "type": "uint256"
        }
      ],
      "stateMutability": "view",
      "type": "function",
      "constant": true
    },
    {
      "inputs": [],
      "name": "name",
      "outputs": [
        {
          "internalType": "string",
          "name": "",
          "type": "string"
        }
      ],
      "stateMutability": "view",
      "type": "function",
      "constant": true
    },
    {
      "inputs": [
        {
          "internalType": "address",
          "name": "",
          "type": "address"
        }
      ],
      "name": "organizationNames",
      "outputs": [
        {
          "internalType": "string",
          "name": "",
          "type": "string"
        }
      ],
      "stateMutability": "view",
      "type": "function",
      "constant": true
    },
    {
      "inputs": [
        {
          "internalType": "uint256",
          "name": "",
          "type": "uint256"
        }
      ],
      "name": "organizations",
      "outputs": [
        {
          "internalType": "address",
          "name": "verificationWallet",
          "type": "address"
        },
        {
          "internalType": "string",
          "name": "organizationName",
          "type": "string"
        }
      ],
      "stateMutability": "view",
      "type": "function",
      "constant": true
    },
    {
      "inputs": [
        {
          "internalType": "address",
          "name": "",
          "type": "address"
        }
      ],
      "name": "qualityCheckResults",
      "outputs": [
        {
          "internalType": "bool",
          "name": "result",
          "type": "bool"
        },
        {
          "internalType": "uint256",
          "name": "dateOfCheck",
          "type": "uint256"
        }
      ],
      "stateMutability": "view",
      "type": "function",
      "constant": true
    },
    {
      "inputs": [],
      "name": "qualityCheckVote",
      "outputs": [
        {
          "internalType": "bool",
          "name": "initiated",
          "type": "bool"
        },
        {
          "internalType": "uint256",
          "name": "positiveVotes",
          "type": "uint256"
        }
      ],
      "stateMutability": "view",
      "type": "function",
      "constant": true
    },
    {
      "inputs": [],
      "name": "symbol",
      "outputs": [
        {
          "internalType": "string",
          "name": "",
          "type": "string"
        }
      ],
      "stateMutability": "view",
      "type": "function",
      "constant": true
    },
    {
      "inputs": [
        {
          "internalType": "address",
          "name": "",
          "type": "address"
        }
      ],
      "name": "tokenIssuanceDate",
      "outputs": [
        {
          "internalType": "uint256",
          "name": "",
          "type": "uint256"
        }
      ],
      "stateMutability": "view",
      "type": "function",
      "constant": true
    },
    {
      "inputs": [],
      "name": "totalSupply",
      "outputs": [
        {
          "internalType": "uint256",
          "name": "",
          "type": "uint256"
        }
      ],
      "stateMutability": "view",
      "type": "function",
      "constant": true
    },
    {
      "inputs": [
        {
          "internalType": "address",
          "name": "to",
          "type": "address"
        },
        {
          "internalType": "uint256",
          "name": "value",
          "type": "uint256"
        }
      ],
      "name": "transfer",
      "outputs": [
        {
          "internalType": "bool",
          "name": "",
          "type": "bool"
        }
      ],
      "stateMutability": "nonpayable",
      "type": "function"
    },
    {
      "inputs": [
        {
          "internalType": "address",
          "name": "from",
          "type": "address"
        },
        {
          "internalType": "address",
          "name": "to",
          "type": "address"
        },
        {
          "internalType": "uint256",
          "name": "value",
          "type": "uint256"
        }
      ],
      "name": "transferFrom",
      "outputs": [
        {
          "internalType": "bool",
          "name": "",
          "type": "bool"
        }
      ],
      "stateMutability": "nonpayable",
      "type": "function"
    },
    {
      "inputs": [
        {
          "internalType": "address",
          "name": "",
          "type": "address"
        }
      ],
      "name": "verificationWallets",
      "outputs": [
        {
          "internalType": "address",
          "name": "",
          "type": "address"
        }
      ],
      "stateMutability": "view",
      "type": "function",
      "constant": true
    },
    {
      "inputs": [],
      "name": "voteForQualityCheck",
      "outputs": [],
      "stateMutability": "nonpayable",
      "type": "function"
    },
    {
      "inputs": [
        {
          "internalType": "address",
          "name": "verificationWallet",
          "type": "address"
        }
      ],
      "name": "setVerificationWallet",
      "outputs": [],
      "stateMutability": "nonpayable",
      "type": "function"
    },
    {
      "inputs": [
        {
          "internalType": "string",
          "name": "organizationName",
          "type": "string"
        }
      ],
      "name": "setOrganizationName",
      "outputs": [],
      "stateMutability": "nonpayable",
      "type": "function"
    },
    {
      "inputs": [
        {
          "internalType": "string",
          "name": "organizationName",
          "type": "string"
        }
      ],
      "name": "getOrganizationDetails",
      "outputs": [
        {
          "internalType": "string",
          "name": "",
          "type": "string"
        },
        {
          "internalType": "uint256",
          "name": "",
          "type": "uint256"
        }
      ],
      "stateMutability": "view",
      "type": "function",
      "constant": true
    },
    {
      "inputs": [
        {
          "internalType": "address",
          "name": "verificationWallet",
          "type": "address"
        }
      ],
      "name": "isVerificationWalletValid",
      "outputs": [
        {
          "internalType": "bool",
          "name": "",
          "type": "bool"
        }
      ],
      "stateMutability": "view",
      "type": "function",
      "constant": true
    },
    {
      "inputs": [
        {
          "internalType": "address",
          "name": "participant",
          "type": "address"
        }
      ],
      "name": "checkQualityLabel",
      "outputs": [
        {
          "internalType": "bool",
          "name": "",
          "type": "bool"
        }
      ],
      "stateMutability": "view",
      "type": "function",
      "constant": true
    }
  ],
  "bytecode": "0x60806040523480156200001157600080fd5b50604051620033ff380380620033ff8339818101604052810190620000379190620001bd565b6040518060400160405280600c81526020017f5175616c697479546f6b656e00000000000000000000000000000000000000008152506040518060400160405280600381526020017f51544b00000000000000000000000000000000000000000000000000000000008152508160039081620000b4919062000484565b508060049081620000c6919062000484565b50505081600560006101000a81548173ffffffffffffffffffffffffffffffffffffffff021916908373ffffffffffffffffffffffffffffffffffffffff16021790555080600660006101000a81548173ffffffffffffffffffffffffffffffffffffffff021916908373ffffffffffffffffffffffffffffffffffffffff16021790555050506200056b565b600080fd5b600073ffffffffffffffffffffffffffffffffffffffff82169050919050565b6000620001858262000158565b9050919050565b620001978162000178565b8114620001a357600080fd5b50565b600081519050620001b7816200018c565b92915050565b60008060408385031215620001d757620001d662000153565b5b6000620001e785828601620001a6565b9250506020620001fa85828601620001a6565b9150509250929050565b600081519050919050565b7f4e487b7100000000000000000000000000000000000000000000000000000000600052604160045260246000fd5b7f4e487b7100000000000000000000000000000000000000000000000000000000600052602260045260246000fd5b600060028204905060018216806200028657607f821691505b6020821081036200029c576200029b6200023e565b5b50919050565b60008190508160005260206000209050919050565b60006020601f8301049050919050565b60008160020a8302905092915050565b600060088302620003097fffffffffffffffffffffffffffffffffffffffffffffffffffffffffffffffff82620002c7565b620003158683620002c7565b95508019841693508086168417925050509392505050565b6000819050919050565b6000819050919050565b6000620003626200035c62000356846200032d565b62000337565b6200032d565b9050919050565b6000819050919050565b6200037e8362000341565b620003966200038d8262000369565b848454620002d7565b825550505050565b600090565b620003ad6200039e565b620003ba81848462000373565b505050565b5b81811015620003e257620003d6600082620003a3565b600181019050620003c0565b5050565b601f8211156200043157620003fb81620002a2565b6200040684620002b7565b8101602085101562000416578190505b6200042e6200042585620002b7565b830182620003bf565b50505b505050565b60008160020a8304905092915050565b6000620004596000198460080262000436565b1980831691505092915050565b600062000474838362000446565b9150826002028217905092915050565b6200048f8262000204565b67ffffffffffffffff811115620004ab57620004aa6200020f565b5b620004b782546200026d565b620004c4828285620003e6565b600060209050601f831160018114620004fc5760008415620004e7578287015190505b620004f3858262000466565b86555062000563565b601f1984166200050c86620002a2565b60005b8281101562000536578489015182556001820191506020850194506020810190506200050f565b8683101562000556578489015162000552601f89168262000446565b8355505b6001600288020188555050505b505050505050565b612e84806200057b6000396000f3fe608060405234801561001057600080fd5b506004361061015f576000357c010000000000000000000000000000000000000000000000000000000090048063896da20a116100d5578063a9059cbb11610099578063a9059cbb146103d0578063dd62ed3e14610400578063e792dd8a14610430578063edb2c20014610461578063f97147c514610491578063fb03c1f3146104c15761015f565b8063896da20a1461032b578063940be1161461035c57806395d89b411461036657806396f74e881461038457806398e175b5146103a05761015f565b806323b872dd1161012757806323b872dd14610230578063313ce56714610260578063369084621461027e57806337ca284d146102ae57806370a08231146102df5780637614dd731461030f5761015f565b806306fdde0314610164578063095ea7b31461018257806318160ddd146101b25780631a11178f146101d05780631e5c079314610200575b600080fd5b61016c6104e0565b60405161017991906120d7565b60405180910390f35b61019c600480360381019061019791906121a1565b610572565b6040516101a991906121fc565b60405180910390f35b6101ba610595565b6040516101c79190612226565b60405180910390f35b6101ea60048036038101906101e59190612241565b61059f565b6040516101f7919061227d565b60405180910390f35b61021a60048036038101906102159190612241565b6105d2565b6040516102279190612226565b60405180910390f35b61024a60048036038101906102459190612298565b6105ea565b60405161025791906121fc565b60405180910390f35b610268610619565b6040516102759190612307565b60405180910390f35b61029860048036038101906102939190612241565b610622565b6040516102a59190612226565b60405180910390f35b6102c860048036038101906102c39190612457565b61063a565b6040516102d69291906124a0565b60405180910390f35b6102f960048036038101906102f49190612241565b6107f7565b6040516103069190612226565b60405180910390f35b61032960048036038101906103249190612241565b61083f565b005b61034560048036038101906103409190612241565b6108c0565b6040516103539291906124d0565b60405180910390f35b6103646108f1565b005b61036e610c35565b60405161037b91906120d7565b60405180910390f35b61039e60048036038101906103999190612457565b610cc7565b005b6103ba60048036038101906103b59190612241565b610e17565b6040516103c791906121fc565b60405180910390f35b6103ea60048036038101906103e591906121a1565b610ecd565b6040516103f791906121fc565b60405180910390f35b61041a600480360381019061041591906124f9565b610ef0565b6040516104279190612226565b60405180910390f35b61044a60048036038101906104459190612539565b610f77565b604051610458929190612566565b60405180910390f35b61047b60048036038101906104769190612241565b611053565b60405161048891906120d7565b60405180910390f35b6104ab60048036038101906104a69190612241565b6110f3565b6040516104b891906121fc565b60405180910390f35b6104c96114ad565b6040516104d79291906124d0565b60405180910390f35b6060600380546104ef906125c5565b80601f016020809104026020016040519081016040528092919081815260200182805461051b906125c5565b80156105685780601f1061053d57610100808354040283529160200191610568565b820191906000526020600020905b81548152906001019060200180831161054b57829003601f168201915b5050505050905090565b60008061057d6114cc565b905061058a8185856114d4565b600191505092915050565b6000600254905090565b600c6020528060005260406000206000915054906101000a900473ffffffffffffffffffffffffffffffffffffffff1681565b600e6020528060005260406000206000915090505481565b6000806105f56114cc565b90506106028582856114e6565b61060d85858561157a565b60019150509392505050565b60006012905090565b600f6020528060005260406000206000915090505481565b6060600080600090505b6007805490508110156107b657836040516020016106629190612632565b604051602081830303815290604052805190602001206007828154811061068c5761068b612649565b5b90600052602060002090600202016001016040516020016106ad9190612710565b60405160208183030381529060405280519060200120036107a9576000600782815481106106de576106dd612649565b5b906000526020600020906002020160000160009054906101000a900473ffffffffffffffffffffffffffffffffffffffff169050600061071d826107f7565b1161075d576040517f08c379a000000000000000000000000000000000000000000000000000000000815260040161075490612799565b60405180910390fd5b84600e60008373ffffffffffffffffffffffffffffffffffffffff1673ffffffffffffffffffffffffffffffffffffffff168152602001908152602001600020549350935050506107f2565b8080600101915050610644565b506040517f08c379a00000000000000000000000000000000000000000000000000000000081526004016107e99061282b565b60405180910390fd5b915091565b60008060008373ffffffffffffffffffffffffffffffffffffffff1673ffffffffffffffffffffffffffffffffffffffff168152602001908152602001600020549050919050565b80600c60003373ffffffffffffffffffffffffffffffffffffffff1673ffffffffffffffffffffffffffffffffffffffff16815260200190815260200160002060006101000a81548173ffffffffffffffffffffffffffffffffffffffff021916908373ffffffffffffffffffffffffffffffffffffffff16021790555050565b600b6020528060005260406000206000915090508060000160009054906101000a900460ff16908060010154905082565b600560009054906101000a900473ffffffffffffffffffffffffffffffffffffffff1673ffffffffffffffffffffffffffffffffffffffff166376b22eac336040518263ffffffff167c0100000000000000000000000000000000000000000000000000000000028152600401610968919061227d565b602060405180830381865afa158015610985573d6000803e3d6000fd5b505050506040513d601f19601f820116820180604052508101906109a99190612877565b6109e8576040517f08c379a00000000000000000000000000000000000000000000000000000000081526004016109df906128f0565b60405180910390fd5b600860020160003373ffffffffffffffffffffffffffffffffffffffff1673ffffffffffffffffffffffffffffffffffffffff16815260200190815260200160002060009054906101000a900460ff1615610a78576040517f08c379a0000000000000000000000000000000000000000000000000000000008152600401610a6f9061295c565b60405180910390fd5b6001600860020160003373ffffffffffffffffffffffffffffffffffffffff1673ffffffffffffffffffffffffffffffffffffffff16815260200190815260200160002060006101000a81548160ff02191690831515021790555060086001016000815480929190610ae9906129ab565b91905055506000600560009054906101000a900473ffffffffffffffffffffffffffffffffffffffff1673ffffffffffffffffffffffffffffffffffffffff166363dc9eae6040518163ffffffff167c0100000000000000000000000000000000000000000000000000000000028152600401602060405180830381865afa158015610b79573d6000803e3d6000fd5b505050506040513d601f19601f82011682018060405250810190610b9d9190612a08565b9050600860000160009054906101000a900460ff16158015610bcf5750806002600860010154610bcd9190612a35565b115b15610c32576001600860000160006101000a81548160ff0219169083151502179055507fff245f8667c9cca37288eff81b78ab16225d30ca3b373a71ce7157107be3ba5f42604051610c219190612226565b60405180910390a1610c3161166e565b5b50565b606060048054610c44906125c5565b80601f0160208091040260200160405190810160405280929190818152602001828054610c70906125c5565b8015610cbd5780601f10610c9257610100808354040283529160200191610cbd565b820191906000526020600020905b815481529060010190602001808311610ca057829003601f168201915b5050505050905090565b6000610cd2336107f7565b11610d12576040517f08c379a0000000000000000000000000000000000000000000000000000000008152600401610d0990612ae9565b60405180910390fd5b80600d60003373ffffffffffffffffffffffffffffffffffffffff1673ffffffffffffffffffffffffffffffffffffffff1681526020019081526020016000209081610d5e9190612ca6565b50600760405180604001604052803373ffffffffffffffffffffffffffffffffffffffff16815260200183815250908060018154018082558091505060019003906000526020600020906002020160009091909190915060008201518160000160006101000a81548173ffffffffffffffffffffffffffffffffffffffff021916908373ffffffffffffffffffffffffffffffffffffffff1602179055506020820151816001019081610e119190612ca6565b50505050565b600080610e23836107f7565b9050600081118015610eb35750600e60008473ffffffffffffffffffffffffffffffffffffffff1673ffffffffffffffffffffffffffffffffffffffff16815260200190815260200160002054600f60008573ffffffffffffffffffffffffffffffffffffffff1673ffffffffffffffffffffffffffffffffffffffff1681526020019081526020016000205410155b15610ec2576001915050610ec8565b60009150505b919050565b600080610ed86114cc565b9050610ee581858561157a565b600191505092915050565b6000600160008473ffffffffffffffffffffffffffffffffffffffff1673ffffffffffffffffffffffffffffffffffffffff16815260200190815260200160002060008373ffffffffffffffffffffffffffffffffffffffff1673ffffffffffffffffffffffffffffffffffffffff16815260200190815260200160002054905092915050565b60078181548110610f8757600080fd5b90600052602060002090600202016000915090508060000160009054906101000a900473ffffffffffffffffffffffffffffffffffffffff1690806001018054610fd0906125c5565b80601f0160208091040260200160405190810160405280929190818152602001828054610ffc906125c5565b80156110495780601f1061101e57610100808354040283529160200191611049565b820191906000526020600020905b81548152906001019060200180831161102c57829003601f168201915b5050505050905082565b600d6020528060005260406000206000915090508054611072906125c5565b80601f016020809104026020016040519081016040528092919081815260200182805461109e906125c5565b80156110eb5780601f106110c0576101008083540402835291602001916110eb565b820191906000526020600020905b8154815290600101906020018083116110ce57829003601f168201915b505050505081565b600080600560009054906101000a900473ffffffffffffffffffffffffffffffffffffffff1673ffffffffffffffffffffffffffffffffffffffff16632b2883a56040518163ffffffff167c0100000000000000000000000000000000000000000000000000000000028152600401602060405180830381865afa15801561117f573d6000803e3d6000fd5b505050506040513d601f19601f820116820180604052508101906111a39190612a08565b90506000600560009054906101000a900473ffffffffffffffffffffffffffffffffffffffff1673ffffffffffffffffffffffffffffffffffffffff1663f0b54c3c6040518163ffffffff167c0100000000000000000000000000000000000000000000000000000000028152600401602060405180830381865afa158015611230573d6000803e3d6000fd5b505050506040513d601f19601f820116820180604052508101906112549190612a08565b9050600062015180600560009054906101000a900473ffffffffffffffffffffffffffffffffffffffff1673ffffffffffffffffffffffffffffffffffffffff1663573796846040518163ffffffff167c0100000000000000000000000000000000000000000000000000000000028152600401602060405180830381865afa1580156112e5573d6000803e3d6000fd5b505050506040513d601f19601f820116820180604052508101906113099190612a08565b6113139190612a35565b90506000600660009054906101000a900473ffffffffffffffffffffffffffffffffffffffff1673ffffffffffffffffffffffffffffffffffffffff166323cf9ef887846040518363ffffffff167c0100000000000000000000000000000000000000000000000000000000028152600401611390929190612d78565b602060405180830381865afa1580156113ad573d6000803e3d6000fd5b505050506040513d601f19601f820116820180604052508101906113d19190612a08565b90506000600660009054906101000a900473ffffffffffffffffffffffffffffffffffffffff1673ffffffffffffffffffffffffffffffffffffffff1663b488533e88856040518363ffffffff167c010000000000000000000000000000000000000000000000000000000002815260040161144e929190612d78565b602060405180830381865afa15801561146b573d6000803e3d6000fd5b505050506040513d601f19601f8201168201806040525081019061148f9190612a08565b90508482101580156114a15750838110155b95505050505050919050565b60088060000160009054906101000a900460ff16908060010154905082565b600033905090565b6114e18383836001611809565b505050565b60006114f28484610ef0565b90507fffffffffffffffffffffffffffffffffffffffffffffffffffffffffffffffff81146115745781811015611564578281836040517ffb8f41b200000000000000000000000000000000000000000000000000000000815260040161155b93929190612da1565b60405180910390fd5b61157384848484036000611809565b5b50505050565b600073ffffffffffffffffffffffffffffffffffffffff168373ffffffffffffffffffffffffffffffffffffffff16036115ec5760006040517f96c6fd1e0000000000000000000000000000000000000000000000000000000081526004016115e3919061227d565b60405180910390fd5b600073ffffffffffffffffffffffffffffffffffffffff168273ffffffffffffffffffffffffffffffffffffffff160361165e5760006040517fec442f05000000000000000000000000000000000000000000000000000000008152600401611655919061227d565b60405180910390fd5b6116698383836119e0565b505050565b6000600560009054906101000a900473ffffffffffffffffffffffffffffffffffffffff1673ffffffffffffffffffffffffffffffffffffffff166363dc9eae6040518163ffffffff167c0100000000000000000000000000000000000000000000000000000000028152600401602060405180830381865afa1580156116f9573d6000803e3d6000fd5b505050506040513d601f19601f8201168201806040525081019061171d9190612a08565b905060005b818110156117fd576000600560009054906101000a900473ffffffffffffffffffffffffffffffffffffffff1673ffffffffffffffffffffffffffffffffffffffff16636aa99ffe836040518263ffffffff167c01000000000000000000000000000000000000000000000000000000000281526004016117a39190612226565b602060405180830381865afa1580156117c0573d6000803e3d6000fd5b505050506040513d601f19601f820116820180604052508101906117e49190612ded565b90506117ef81611c05565b508080600101915050611722565b50611806611db0565b50565b600073ffffffffffffffffffffffffffffffffffffffff168473ffffffffffffffffffffffffffffffffffffffff160361187b5760006040517fe602df05000000000000000000000000000000000000000000000000000000008152600401611872919061227d565b60405180910390fd5b600073ffffffffffffffffffffffffffffffffffffffff168373ffffffffffffffffffffffffffffffffffffffff16036118ed5760006040517f94280d620000000000000000000000000000000000000000000000000000000081526004016118e4919061227d565b60405180910390fd5b81600160008673ffffffffffffffffffffffffffffffffffffffff1673ffffffffffffffffffffffffffffffffffffffff16815260200190815260200160002060008573ffffffffffffffffffffffffffffffffffffffff1673ffffffffffffffffffffffffffffffffffffffff1681526020019081526020016000208190555080156119da578273ffffffffffffffffffffffffffffffffffffffff168473ffffffffffffffffffffffffffffffffffffffff167f8c5be1e5ebec7d5bd14f71427d1e84f3dd0314c0f7b2291e5b200ac8c7c3b925846040516119d19190612226565b60405180910390a35b50505050565b600073ffffffffffffffffffffffffffffffffffffffff168373ffffffffffffffffffffffffffffffffffffffff1603611a32578060026000828254611a269190612e1a565b92505081905550611b05565b60008060008573ffffffffffffffffffffffffffffffffffffffff1673ffffffffffffffffffffffffffffffffffffffff16815260200190815260200160002054905081811015611abe578381836040517fe450d38c000000000000000000000000000000000000000000000000000000008152600401611ab593929190612da1565b60405180910390fd5b8181036000808673ffffffffffffffffffffffffffffffffffffffff1673ffffffffffffffffffffffffffffffffffffffff16815260200190815260200160002081905550505b600073ffffffffffffffffffffffffffffffffffffffff168273ffffffffffffffffffffffffffffffffffffffff1603611b4e5780600260008282540392505081905550611b9b565b806000808473ffffffffffffffffffffffffffffffffffffffff1673ffffffffffffffffffffffffffffffffffffffff168152602001908152602001600020600082825401925050819055505b8173ffffffffffffffffffffffffffffffffffffffff168373ffffffffffffffffffffffffffffffffffffffff167fddf252ad1be2c89b69c2b068fc378daa952ba7f163c4a11628f55a4df523b3ef83604051611bf89190612226565b60405180910390a3505050565b6000611c10826110f3565b905060004290508115611d5b576000600c60008573ffffffffffffffffffffffffffffffffffffffff1673ffffffffffffffffffffffffffffffffffffffff16815260200190815260200160002060009054906101000a900473ffffffffffffffffffffffffffffffffffffffff169050611c9281611c8d611fb5565b611fc5565b81600f60008373ffffffffffffffffffffffffffffffffffffffff1673ffffffffffffffffffffffffffffffffffffffff168152602001908152602001600020819055506040518060400160405280841515815260200183815250600b60008373ffffffffffffffffffffffffffffffffffffffff1673ffffffffffffffffffffffffffffffffffffffff16815260200190815260200160002060008201518160000160006101000a81548160ff02191690831515021790555060208201518160010155905050505b8273ffffffffffffffffffffffffffffffffffffffff167f3a43bf0a75817bfbace3e76d5e7c939775573cb12d8669beb7c288ab1e57ec9b8383604051611da39291906124d0565b60405180910390a2505050565b6000600560009054906101000a900473ffffffffffffffffffffffffffffffffffffffff1673ffffffffffffffffffffffffffffffffffffffff166363dc9eae6040518163ffffffff167c0100000000000000000000000000000000000000000000000000000000028152600401602060405180830381865afa158015611e3b573d6000803e3d6000fd5b505050506040513d601f19601f82011682018060405250810190611e5f9190612a08565b905060005b81811015611f88576000600560009054906101000a900473ffffffffffffffffffffffffffffffffffffffff1673ffffffffffffffffffffffffffffffffffffffff16636aa99ffe836040518263ffffffff167c0100000000000000000000000000000000000000000000000000000000028152600401611ee59190612226565b602060405180830381865afa158015611f02573d6000803e3d6000fd5b505050506040513d601f19601f82011682018060405250810190611f269190612ded565b9050600860020160008273ffffffffffffffffffffffffffffffffffffffff1673ffffffffffffffffffffffffffffffffffffffff16815260200190815260200160002060006101000a81549060ff0219169055508080600101915050611e64565b506000600860000160006101000a81548160ff021916908315150217905550600060086001018190555050565b6000670de0b6b3a7640000905090565b600073ffffffffffffffffffffffffffffffffffffffff168273ffffffffffffffffffffffffffffffffffffffff16036120375760006040517fec442f0500000000000000000000000000000000000000000000000000000000815260040161202e919061227d565b60405180910390fd5b612043600083836119e0565b5050565b600081519050919050565b600082825260208201905092915050565b60005b83811015612081578082015181840152602081019050612066565b60008484015250505050565b6000601f19601f8301169050919050565b60006120a982612047565b6120b38185612052565b93506120c3818560208601612063565b6120cc8161208d565b840191505092915050565b600060208201905081810360008301526120f1818461209e565b905092915050565b6000604051905090565b600080fd5b600080fd5b600073ffffffffffffffffffffffffffffffffffffffff82169050919050565b60006121388261210d565b9050919050565b6121488161212d565b811461215357600080fd5b50565b6000813590506121658161213f565b92915050565b6000819050919050565b61217e8161216b565b811461218957600080fd5b50565b60008135905061219b81612175565b92915050565b600080604083850312156121b8576121b7612103565b5b60006121c685828601612156565b92505060206121d78582860161218c565b9150509250929050565b60008115159050919050565b6121f6816121e1565b82525050565b600060208201905061221160008301846121ed565b92915050565b6122208161216b565b82525050565b600060208201905061223b6000830184612217565b92915050565b60006020828403121561225757612256612103565b5b600061226584828501612156565b91505092915050565b6122778161212d565b82525050565b6000602082019050612292600083018461226e565b92915050565b6000806000606084860312156122b1576122b0612103565b5b60006122bf86828701612156565b93505060206122d086828701612156565b92505060406122e18682870161218c565b9150509250925092565b600060ff82169050919050565b612301816122eb565b82525050565b600060208201905061231c60008301846122f8565b92915050565b600080fd5b600080fd5b7f4e487b7100000000000000000000000000000000000000000000000000000000600052604160045260246000fd5b6123648261208d565b810181811067ffffffffffffffff821117156123835761238261232c565b5b80604052505050565b60006123966120f9565b90506123a2828261235b565b919050565b600067ffffffffffffffff8211156123c2576123c161232c565b5b6123cb8261208d565b9050602081019050919050565b82818337600083830152505050565b60006123fa6123f5846123a7565b61238c565b90508281526020810184848401111561241657612415612327565b5b6124218482856123d8565b509392505050565b600082601f83011261243e5761243d612322565b5b813561244e8482602086016123e7565b91505092915050565b60006020828403121561246d5761246c612103565b5b600082013567ffffffffffffffff81111561248b5761248a612108565b5b61249784828501612429565b91505092915050565b600060408201905081810360008301526124ba818561209e565b90506124c96020830184612217565b9392505050565b60006040820190506124e560008301856121ed565b6124f26020830184612217565b9392505050565b600080604083850312156125105761250f612103565b5b600061251e85828601612156565b925050602061252f85828601612156565b9150509250929050565b60006020828403121561254f5761254e612103565b5b600061255d8482850161218c565b91505092915050565b600060408201905061257b600083018561226e565b818103602083015261258d818461209e565b90509392505050565b7f4e487b7100000000000000000000000000000000000000000000000000000000600052602260045260246000fd5b600060028204905060018216806125dd57607f821691505b6020821081036125f0576125ef612596565b5b50919050565b600081905092915050565b600061260c82612047565b61261681856125f6565b9350612626818560208601612063565b80840191505092915050565b600061263e8284612601565b915081905092915050565b7f4e487b7100000000000000000000000000000000000000000000000000000000600052603260045260246000fd5b60008190508160005260206000209050919050565b6000815461269a816125c5565b6126a481866125f6565b945060018216600081146126bf57600181146126d457612707565b60ff1983168652811515820286019350612707565b6126dd85612678565b60005b838110156126ff578154818901526001820191506020810190506126e0565b838801955050505b50505092915050565b600061271c828461268d565b915081905092915050565b7f5175616c6974794c6162656c3a20566572696669636174696f6e2077616c6c6560008201527f7420686173206e6f20746f6b656e730000000000000000000000000000000000602082015250565b6000612783602f83612052565b915061278e82612727565b604082019050919050565b600060208201905081810360008301526127b281612776565b9050919050565b7f5175616c6974794c6162656c3a204f7267616e697a6174696f6e206e6f74206660008201527f6f756e6400000000000000000000000000000000000000000000000000000000602082015250565b6000612815602483612052565b9150612820826127b9565b604082019050919050565b6000602082019050818103600083015261284481612808565b9050919050565b612854816121e1565b811461285f57600080fd5b50565b6000815190506128718161284b565b92915050565b60006020828403121561288d5761288c612103565b5b600061289b84828501612862565b91505092915050565b7f41646472657373206973206e6f74207265676973746572656400000000000000600082015250565b60006128da601983612052565b91506128e5826128a4565b602082019050919050565b60006020820190508181036000830152612909816128cd565b9050919050565b7f416c726561647920766f74656400000000000000000000000000000000000000600082015250565b6000612946600d83612052565b915061295182612910565b602082019050919050565b6000602082019050818103600083015261297581612939565b9050919050565b7f4e487b7100000000000000000000000000000000000000000000000000000000600052601160045260246000fd5b60006129b68261216b565b91507fffffffffffffffffffffffffffffffffffffffffffffffffffffffffffffffff82036129e8576129e761297c565b5b600182019050919050565b600081519050612a0281612175565b92915050565b600060208284031215612a1e57612a1d612103565b5b6000612a2c848285016129f3565b91505092915050565b6000612a408261216b565b9150612a4b8361216b565b9250828202612a598161216b565b91508282048414831517612a7057612a6f61297c565b5b5092915050565b7f5175616c6974794c6162656c3a204e6f20746f6b656e7320696e2077616c6c6560008201527f7400000000000000000000000000000000000000000000000000000000000000602082015250565b6000612ad3602183612052565b9150612ade82612a77565b604082019050919050565b60006020820190508181036000830152612b0281612ac6565b9050919050565b60006020601f8301049050919050565b60008160020a8302905092915050565b600060088302612b597fffffffffffffffffffffffffffffffffffffffffffffffffffffffffffffffff82612b19565b612b638683612b19565b95508019841693508086168417925050509392505050565b6000819050919050565b6000612ba0612b9b612b968461216b565b612b7b565b61216b565b9050919050565b6000819050919050565b612bba83612b85565b612bce612bc682612ba7565b848454612b29565b825550505050565b600090565b612be3612bd6565b612bee818484612bb1565b505050565b5b81811015612c1257612c07600082612bdb565b600181019050612bf4565b5050565b601f821115612c5757612c2881612678565b612c3184612b09565b81016020851015612c40578190505b612c54612c4c85612b09565b830182612bf3565b50505b505050565b60008160020a8304905092915050565b6000612c7d60001984600802612c5c565b1980831691505092915050565b6000612c968383612c6c565b9150826002028217905092915050565b612caf82612047565b67ffffffffffffffff811115612cc857612cc761232c565b5b612cd282546125c5565b612cdd828285612c16565b600060209050601f831160018114612d105760008415612cfe578287015190505b612d088582612c8a565b865550612d70565b601f198416612d1e86612678565b60005b82811015612d4657848901518255600182019150602085019450602081019050612d21565b86831015612d635784890151612d5f601f891682612c6c565b8355505b6001600288020188555050505b505050505050565b6000604082019050612d8d600083018561226e565b612d9a6020830184612217565b9392505050565b6000606082019050612db6600083018661226e565b612dc36020830185612217565b612dd06040830184612217565b949350505050565b600081519050612de78161213f565b92915050565b600060208284031215612e0357612e02612103565b5b6000612e1184828501612dd8565b91505092915050565b6000612e258261216b565b9150612e308361216b565b9250828201905080821115612e4857612e4761297c565b5b9291505056fea26469706673582212205fc889f133cf9dfae5e484579a2176c89ecc1d25a2be35423e6f9dd14735ce5864736f6c63430008180033",
  "immutableReferences": {},
  "source": "// SPDX-License-Identifier: UNLICENSED\npragma solidity >=0.4.22 <0.9.0;\n\nimport \"@openzeppelin/contracts/token/ERC20/ERC20.sol\";\n\nimport \"./CommunityProperties.sol\";\nimport \"./Marketplace.sol\";\n\ncontract QualityLabel is ERC20 {\n    CommunityProperties communityProperties;\n    Marketplace marketplace;\n\n    struct QualityCheckVote {\n        bool initiated;\n        uint256 positiveVotes;\n        mapping(address => bool) hasVoted;\n    }\n\n    struct QualityCheckResult {\n        bool result;\n        uint256 dateOfCheck;\n    }\n\n    struct OrganizationInfo {\n        address verificationWallet;\n        string organizationName;\n    }\n\n    OrganizationInfo[] public organizations;\n\n    QualityCheckVote public qualityCheckVote;\n    mapping(address => QualityCheckResult) public qualityCheckResults;\n\n    // Mapping between sharing wallet and verification wallet\n    mapping(address => address) public verificationWallets;\n    // Mapping to store the organization name associated with a verification wallet\n    mapping(address => string) public organizationNames;\n    // Mapping to store the date of token issuance for verification wallets\n    mapping(address => uint256) public tokenIssuanceDate;\n    // Mapping to store the date of the last successful QualityLabel check for each address\n    mapping(address => uint256) public lastSuccessfulCheckDate;\n\n    event QualityCheckInitiated(uint256 timestamp);\n    event QualityCheckPerformed(address indexed participant, bool result, uint256 timestamp);\n\n    constructor(address _communityPropertiesAddress, address _marketplaceAddress)\n        ERC20(\"QualityToken\", \"QTK\") \n    {\n        communityProperties = CommunityProperties(_communityPropertiesAddress);\n        marketplace = Marketplace(payable(_marketplaceAddress));\n    }\n\n    modifier onlyRegistered() {\n        require(communityProperties.registeredAddresses(msg.sender), \"Address is not registered\");\n        _;\n    }\n\n    function voteForQualityCheck() public onlyRegistered {\n        require(!qualityCheckVote.hasVoted[msg.sender], \"Already voted\");\n        qualityCheckVote.hasVoted[msg.sender] = true;\n        qualityCheckVote.positiveVotes++;\n\n        uint256 totalRegistered = communityProperties.totalAddressesCount();\n        if (!qualityCheckVote.initiated && qualityCheckVote.positiveVotes * 2 > totalRegistered) {\n            qualityCheckVote.initiated = true;\n            emit QualityCheckInitiated(block.timestamp);\n            performQualityCheckOnAll();\n        }\n    }\n\n    function performQualityCheckOnAll() internal {\n        uint256 totalRegistered = communityProperties.totalAddressesCount();\n        for (uint256 i = 0; i < totalRegistered; i++) {\n            address participant = communityProperties.getRegisteredAddressAtIndex(i);\n            performQualityCheck(participant);\n        }\n        // Reset the voting state after performing the quality check\n        resetVotingState();\n    }\n\n    function resetVotingState() internal {\n        uint256 totalRegistered = communityProperties.totalAddressesCount();\n        for (uint256 i = 0; i < totalRegistered; i++) {\n            address participant = communityProperties.getRegisteredAddressAtIndex(i);\n            delete qualityCheckVote.hasVoted[participant];\n        }\n        qualityCheckVote.initiated = false;\n        qualityCheckVote.positiveVotes = 0;\n    }\n\n    function setVerificationWallet(address verificationWallet) public {\n        verificationWallets[msg.sender] = verificationWallet;\n    }\n\n    function setOrganizationName(string memory organizationName) public {\n        require(balanceOf(msg.sender) > 0, \"QualityLabel: No tokens in wallet\");\n        organizationNames[msg.sender] = organizationName;\n        organizations.push(OrganizationInfo(msg.sender, organizationName));\n    }\n\n    function getOrganizationDetails(string memory organizationName) public view returns (string memory, uint256) {\n        for (uint i = 0; i < organizations.length; i++) {\n            if (keccak256(abi.encodePacked(organizations[i].organizationName)) == keccak256(abi.encodePacked(organizationName))) {\n                address verificationWallet = organizations[i].verificationWallet;\n                require(balanceOf(verificationWallet) > 0, \"QualityLabel: Verification wallet has no tokens\");\n                return (organizationName, tokenIssuanceDate[verificationWallet]);\n            }\n        }\n        revert(\"QualityLabel: Organization not found\");\n    }\n\n\n    function performQualityCheck(address participant) internal {\n        bool qualityResult = checkQualityLabel(participant);\n        uint256 currentTime = block.timestamp;\n\n        if (qualityResult) {\n            address verificationWallet = verificationWallets[participant];\n            _mint(verificationWallet, getRewardAmount());\n            lastSuccessfulCheckDate[verificationWallet] = currentTime; // Update the check date\n            qualityCheckResults[verificationWallet] = QualityCheckResult({\n                result: qualityResult,\n                dateOfCheck: currentTime\n            });\n        }\n\n        emit QualityCheckPerformed(participant, qualityResult, currentTime);\n    }\n\n    function isVerificationWalletValid(address verificationWallet) public view returns (bool) {\n        uint256 tokens = balanceOf(verificationWallet);\n        if (tokens > 0 && lastSuccessfulCheckDate[verificationWallet] >= tokenIssuanceDate[verificationWallet]) {\n            return true;\n        }\n        return false;\n    }\n    function checkQualityLabel(address participant) public view returns (bool) {\n        uint256 requiredSales = communityProperties.requiredSales();\n        uint256 requiredPurchases = communityProperties.requiredPurchases();\n        uint256 requiredTimePeriod = communityProperties.getRequiredQLTimePeriod() * 1 days;\n\n        uint256 salesCount = marketplace.getSellerSalesCount(participant, requiredTimePeriod);\n        uint256 purchasesCount = marketplace.getBuyerPurchaseCount(participant, requiredTimePeriod);\n\n        return salesCount >= requiredSales && purchasesCount >= requiredPurchases;\n    }\n\n    function getRewardAmount() internal pure returns (uint256) {\n        // Define logic to determine the reward amount\n        return 1 * 10 ** 18; // Placeholder for 1 token (assuming 18 decimals)\n    }\n}\n",
  "sourcePath": "/root/besu-23.10.2/bin/IBFT-Network/contracts/QualityLabel.sol",
  "compiler": {
    "name": "solc",
    "version": "0.8.24+commit.e11b9ed9.Emscripten.clang"
  },
  "schemaVersion": "3.4.16",
  "updatedAt": "2024-02-18T19:03:04.095Z",
  "networkType": "ethereum",
  "devdoc": {
    "errors": {
      "ERC20InsufficientAllowance(address,uint256,uint256)": [
        {
          "details": "Indicates a failure with the `spender`s `allowance`. Used in transfers.",
          "params": {
            "allowance": "Amount of tokens a `spender` is allowed to operate with.",
            "needed": "Minimum amount required to perform a transfer.",
            "spender": "Address that may be allowed to operate on tokens without being their owner."
          }
        }
      ],
      "ERC20InsufficientBalance(address,uint256,uint256)": [
        {
          "details": "Indicates an error related to the current `balance` of a `sender`. Used in transfers.",
          "params": {
            "balance": "Current balance for the interacting account.",
            "needed": "Minimum amount required to perform a transfer.",
            "sender": "Address whose tokens are being transferred."
          }
        }
      ],
      "ERC20InvalidApprover(address)": [
        {
          "details": "Indicates a failure with the `approver` of a token to be approved. Used in approvals.",
          "params": {
            "approver": "Address initiating an approval operation."
          }
        }
      ],
      "ERC20InvalidReceiver(address)": [
        {
          "details": "Indicates a failure with the token `receiver`. Used in transfers.",
          "params": {
            "receiver": "Address to which tokens are being transferred."
          }
        }
      ],
      "ERC20InvalidSender(address)": [
        {
          "details": "Indicates a failure with the token `sender`. Used in transfers.",
          "params": {
            "sender": "Address whose tokens are being transferred."
          }
        }
      ],
      "ERC20InvalidSpender(address)": [
        {
          "details": "Indicates a failure with the `spender` to be approved. Used in approvals.",
          "params": {
            "spender": "Address that may be allowed to operate on tokens without being their owner."
          }
        }
      ]
    },
    "events": {
      "Approval(address,address,uint256)": {
        "details": "Emitted when the allowance of a `spender` for an `owner` is set by a call to {approve}. `value` is the new allowance."
      },
      "Transfer(address,address,uint256)": {
        "details": "Emitted when `value` tokens are moved from one account (`from`) to another (`to`). Note that `value` may be zero."
      }
    },
    "kind": "dev",
    "methods": {
      "allowance(address,address)": {
        "details": "See {IERC20-allowance}."
      },
      "approve(address,uint256)": {
        "details": "See {IERC20-approve}. NOTE: If `value` is the maximum `uint256`, the allowance is not updated on `transferFrom`. This is semantically equivalent to an infinite approval. Requirements: - `spender` cannot be the zero address."
      },
      "balanceOf(address)": {
        "details": "See {IERC20-balanceOf}."
      },
      "decimals()": {
        "details": "Returns the number of decimals used to get its user representation. For example, if `decimals` equals `2`, a balance of `505` tokens should be displayed to a user as `5.05` (`505 / 10 ** 2`). Tokens usually opt for a value of 18, imitating the relationship between Ether and Wei. This is the default value returned by this function, unless it's overridden. NOTE: This information is only used for _display_ purposes: it in no way affects any of the arithmetic of the contract, including {IERC20-balanceOf} and {IERC20-transfer}."
      },
      "name()": {
        "details": "Returns the name of the token."
      },
      "symbol()": {
        "details": "Returns the symbol of the token, usually a shorter version of the name."
      },
      "totalSupply()": {
        "details": "See {IERC20-totalSupply}."
      },
      "transfer(address,uint256)": {
        "details": "See {IERC20-transfer}. Requirements: - `to` cannot be the zero address. - the caller must have a balance of at least `value`."
      },
      "transferFrom(address,address,uint256)": {
        "details": "See {IERC20-transferFrom}. Emits an {Approval} event indicating the updated allowance. This is not required by the EIP. See the note at the beginning of {ERC20}. NOTE: Does not update the allowance if the current allowance is the maximum `uint256`. Requirements: - `from` and `to` cannot be the zero address. - `from` must have a balance of at least `value`. - the caller must have allowance for ``from``'s tokens of at least `value`."
      }
    },
    "version": 1
  },
  "userdoc": {
    "kind": "user",
    "methods": {},
    "version": 1
  }
}